:100000000C9434000C943E000C943E000C943E0082
:100010000C943E000C943E000C943E000C943E0068
:100020000C943E000C943E000C943E000C943E0058
:100030000C943E000C943E000C943E000C943E0048
:100040000C943E000C943E000C943E000C943E0038
:100050000C943E000C943E000C943E000C943E0028
:100060000C943E000C943E0011241FBECFEFD8E04C
:10007000DEBFCDBF0E9440000C94E8000C9400004D
:100080008FEF84B9E0E8F0E0808183608083808135
:1000900080628083E1E8F0E0808184608083E0EB2F
:1000A000F0E0808183608083808180688083E1EBE1
:1000B000F0E080818460808315B80E94C90000E070
:1000C00010E0D0E0C0E00115110561F42AEA36EE37
:1000D00086E991E02150304080409040D9F70000FF
:1000E0000F5F1F4F8C2F8D2B85B92FEF30E782E0EC
:1000F000215030408040E1F700C0000015B80E9458
:10010000E10090E08134910561F488EC90E09093F7
:100110008B0080938A0088EC8093B300D8E1C5E01F
:10012000D2CF8234910561F486E990E090938B0000
:1001300080938A0086E98093B300D8E2C6E0C3CFFB
:100140008334910559F484E690E090938B0080937A
:100150008A008093B300D8E1C6E0B5CF843491051E
:1001600059F484E690E090938B0080938A0080930A
:10017000B300D8E2C5E0A7CF8335910509F0A3CF3E
:1001800010928B0010928A001092B300D0E0C0E071
:100190009ACF1092C50080E18093C400E0ECF0E0BB
:1001A000808182608083E2ECF0E0808186608083E1
:1001B000E1ECF0E0808180618083808188608083D1
:1001C00008958091C0008823E4F78091C6000895C7
:0401D000F894FFCFD1
:00000001FF
